:100000000C9434000C9446000C9446000C9446006A
:100010000C9446000C9446000C9446000C94460048
:100020000C9446000C9446000C9446000C94460038
:100030000C9446000C9406020C9446000C94460066
:100040000C9446000C9446000C9446000C94460018
:100050000C9446000C9446000C9446000C94460008
:100060000C9446000C94460011241FBECFEFD8E03C
:10007000DEBFCDBF21E0A0E0B1E001C01D92A03203
:10008000B207E1F70E94E6010C9434050C940000DD
:1000900021E030E0EAE0F0E0BF010E94D004CB01B3
:1000A000009719F02F5F3F4FF7CFC90108958130B6
:1000B000910511F481E008C08230910511F482E0CD
:1000C00003C0039711F484E08BB96115710511F435
:1000D00080EC2CC06130710511F489EF27C06230CB
:1000E000710511F484EA22C06330710511F480EBCC
:1000F0001DC06430710511F489E918C065307105BF
:1001000011F482E913C06630710511F482E80EC063
:100110006730710511F488EF09C06830710511F47A
:1001200080E804C06930710511F488E985B9089543
:100130009F92AF92BF92CF92DF92EF92FF920F9376
:100140001F93CF93DF93CDB7DEB7F82EE92ECDB650
:10015000DEB60E9448009C018DB79EB7821B930BB0
:100160000FB6F8949EBF0FBE8DBF0DB71EB70F5FC1
:100170001F4FF801E20FF31FAAE0AA2EB12CE017DF
:10018000F10749F08F2D9E2DB5010E94E404829362
:10019000F62EE72EF4CF2330310581F578EEE72EE9
:1001A00073E0F72EF801608170E083E090E00E9438
:1001B000570087EE93E00197F1F700C00000F801C7
:1001C000618170E082E090E00E94570087EE93E04A
:1001D0000197F1F700C00000F801628170E081E052
:1001E00090E00E94570087EE93E00197F1F700C07E
:1001F000000091E0E91AF108A9F660C0223031054B
:1002000079F548EEE42E43E0F42E54E0A52E60ECA0
:10021000B62EABB8B5B8E7EEF3E03197F1F700C012
:100220000000F801608170E082E090E00E945700D9
:1002300087EE93E00197F1F700C00000F8016181BB
:1002400070E081E090E00E94570087EE93E0019714
:10025000F1F700C0000091E0E91AF108D1F62EC0D4
:100260002130310559F588EEE82E83E0F82E94E030
:10027000992E20ECB22E32E0A32E9BB8B5B8E7EE53
:10028000F3E03197F1F700C00000ABB8B5B887EEE6
:1002900093E00197F1F700C00000F801608170E081
:1002A00081E090E00E94570087EE93E00197F1F71C
:1002B00000C0000091E0E91AF108F9F615B81BB882
:1002C0000FB6F894DEBE0FBECDBEDF91CF911F9169
:1002D0000F91FF90EF90DF90CF90BF90AF909F90E5
:1002E0000895CF93DF93C0E0D1E00E942F0289935D
:1002F00099932FEF82E597E0215080409040E1F7FD
:1003000000C0000021E0C431D20779F780E091E01D
:10031000DF91CF910895CF92DF92EF92FF920F93EA
:100320001F93CF93DF93EC018C01005F1F4FC12C13
:10033000D12C7601FE016C817D8122968081918194
:10034000681B790B072E000C880B990B0E94D703B2
:100350002AE939E949E15FE30E942D030E949F03E6
:100360009B0177FF04C022273327261B370BB901D7
:10037000330F880B990B0E94D7039B01AC01C70177
:10038000B6010E94C1026B017C01C017D10791F632
:1003900020E030E040E05EE30E9463042AE431E4C0
:1003A00047EB5CE30E94630420E030E04EEA52E455
:1003B0000E9463040E949F03CB01DF91CF911F91A4
:1003C0000F91FF90EF90DF90CF9008958FE784B961
:1003D00087E08AB90E9471010E948B018B309105E0
:1003E000CCF30E949800F6CF539A549808955B98E6
:1003F00082E08A95F1F700C05B9A80E28A95F1F776
:100400005B9882E08A95F1F700C008951F920F92E1
:100410000FB60F9211248F939F93AF93BF93809148
:100420001C0190911D01A0911E01B0911F01019628
:10043000A11DB11D80931C0190931D01A0931E016D
:10044000B0931F011092850010928400BF91AF916C
:100450009F918F910F900FBE0F901F9018950E9443
:10046000F4010E94F7014C9923C0809118019091EA
:100470001901A0911A01B0911B010196A11DB11D96
:100480008093180190931901A0931A01B0931B0156
:100490008091180190911901A0911A01B0911B014E
:1004A00085319F48A340B105F0F28FEF9FEF08958B
:1004B0001092850010928400809181008160809369
:1004C000810080916F00816080936F0010921C0109
:1004D00010921D0110921E0110921F0178944C9BE6
:1004E0001EC020911C0130911D0140911E015091B0
:1004F0001F01E0918400F0918500AFEFBFEF0E94F3
:100500001A05DC01CB018E0F9F1FA11DB11D853186
:100510009F48A340B10518F38EEF9FEF0895109206
:100520008100F89420911C0130911D0140911E0121
:1005300050911F01E0918400F0918500AFEFBFEF73
:100540000E941A05DC01CB018E0F9F1FA11DB11D5A
:100550008093140190931501A0931601B093170195
:10056000609114017091150180911601909117010D
:1005700020ED31E040E050E00E94F804C901089508
:100580005058BB27AA270E94D8020C9429040E9425
:100590001B0438F00E94220420F039F49F3F19F424
:1005A00026F40C9418040EF4E095E7FB0C94120466
:1005B000E92F0E943A0458F3BA17620773078407B9
:1005C000950720F079F4A6F50C945C040EF4E09500
:1005D0000B2EBA2FA02D0B01B90190010C01CA01FD
:1005E000A0011124FF27591B99F0593F50F4503EA8
:1005F00068F11A16F040A22F232F342F4427585F9A
:10060000F3CF469537952795A795F0405395C9F7B1
:100610007EF41F16BA0B620B730B840BBAF0915069
:10062000A1F0FF0FBB1F661F771F881FC2F70EC008
:10063000BA0F621F731F841F48F4879577956795DB
:10064000B795F7959E3F08F0B0CF9395880F08F0C7
:100650009927EE0F9795879508950E9441030C9472
:1006600029040E94220458F00E941B0440F029F43F
:100670005F3F29F00C94120451110C945D040C940A
:1006800018040E943A0468F39923B1F3552391F3B7
:10069000951B550BBB27AA2762177307840738F0F1
:1006A0009F5F5F4F220F331F441FAA1FA9F335D04E
:1006B0000E2E3AF0E0E832D091505040E695001C02
:1006C000CAF72BD0FE2F29D0660F771F881FBB1FBC
:1006D000261737074807AB07B0E809F0BB0B802D9A
:1006E000BF01FF2793585F4F3AF09E3F510578F0C6
:1006F0000C9412040C945D045F3FE4F3983ED4F331
:10070000869577956795B795F7959F5FC9F7880F99
:10071000911D9695879597F90895E1E0660F771FEB
:10072000881FBB1F621773078407BA0720F0621B7C
:10073000730B840BBA0BEE1F88F7E09508950E94A7
:10074000A6036894B1110C945D0408950E944204BC
:1007500088F09F5798F0B92F9927B751B0F0E1F082
:10076000660F771F881F991F1AF0BA95C9F714C032
:10077000B13091F00E945C04B1E008950C945C04E7
:10078000672F782F8827B85F39F0B93FCCF386956B
:1007900077956795B395D9F73EF4909580957095C8
:1007A00061957F4F8F4F9F4F0895E89409C097FB45
:1007B0003EF490958095709561957F4F8F4F9F4F38
:1007C0009923A9F0F92F96E9BB279395F69587957C
:1007D00077956795B795F111F8CFFAF4BB0F11F43F
:1007E00060FF1BC06F5F7F4F8F4F9F4F16C08823E6
:1007F00011F096E911C0772321F09EE8872F762F1C
:1008000005C0662371F096E8862F70E060E02AF05C
:100810009A95660F771F881FDAF7880F9695879548
:1008200097F9089597F99F6780E870E060E0089570
:100830009FEF80EC089500240A94161617061806F8
:100840000906089500240A941216130614060506D4
:100850000895092E0394000C11F4882352F0BB0F65
:1008600040F4BF2B11F460FF04C06F5F7F4F8F4FC8
:100870009F4F089557FD9058440F551F59F05F3F03
:1008800071F04795880F97FB991F61F09F3F79F0B2
:1008900087950895121613061406551FF2CF469534
:1008A000F1DF08C0161617061806991FF1CF8695B6
:1008B0007105610508940895E894BB27662777279A
:1008C000CB0197F908950E9476040C9429040E94A4
:1008D0001B0438F00E94220420F0952311F00C94A0
:1008E00012040C94180411240C945D040E943A0420
:1008F00070F3959FC1F3950F50E0551F629FF00173
:10090000729FBB27F00DB11D639FAA27F00DB11D8B
:10091000AA1F649F6627B00DA11D661F829F222714
:10092000B00DA11D621F739FB00DA11D621F839F9B
:10093000A00D611D221F749F3327A00D611D231F71
:10094000849F600D211D822F762F6A2F11249F57BF
:1009500050409AF0F1F088234AF0EE0FFF1FBB1FC2
:10096000661F771F881F91505040A9F79E3F510581
:1009700080F00C9412040C945D045F3FE4F3983E05
:10098000D4F3869577956795B795F795E7959F5F2B
:10099000C1F7FE2B880F911D9695879597F90895BD
:1009A000AA1BBB1B51E107C0AA1FBB1FA617B70795
:1009B00010F0A61BB70B881F991F5A95A9F78095B1
:1009C0009095BC01CD01089597FB072E16F4009475
:1009D00007D077FD09D00E94D00407FC05D03EF473
:1009E000909581959F4F0895709561957F4F0895DB
:1009F000A1E21A2EAA1BBB1BFD010DC0AA1FBB1F23
:100A0000EE1FFF1FA217B307E407F50720F0A21B94
:100A1000B30BE40BF50B661F771F881F991F1A9401
:100A200069F760957095809590959B01AC01BD012B
:100A3000CF0108950E942505A59F900DB49F900DAC
:100A4000A49F800D911D11240895A29FB001B39F12
:100A5000C001A39F700D811D1124911DB29F700DC7
:0C0A6000811D1124911D0895F894FFCF12
:00000001FF
