S00D000073706565642E7372656306
S11300000C9434000C9446000C9446000C94460066
S11300100C9446000C9446000C9446000C94460044
S11300200C9446000C9446000C9446000C94460034
S11300300C9446000C945E020C9446000C9446000A
S11300400C9446000C9446000C9446000C94460014
S11300500C9446000C9446000C9446000C94460004
S11300600C9446000C94460011241FBECFEFD8E038
S1130070DEBFCDBF21E0A0E0B1E001C01D92A032FF
S1130080B207E1F70E943E020C94B4040C94000001
S11300909C01ADECBCEC0E9486049C01369527952E
S11300A036952795369527952115310599F041E028
S11300B050E04F5F5F4FADECBCEC0E9486049C01A6
S11300C0369527953695279536952795211531052B
S11300D081F702C041E050E0CA01089581309105E2
S11300E019F481E08BB90AC08230910519F482E0D9
S11300F08BB904C0039711F484E08BB961157105C1
S113010019F480EC85B908956130710519F489EF0B
S113011085B908956230710519F484EA85B90895A2
S11301206330710519F480EB85B908956430710565
S113013019F489E985B908956530710519F482E9DE
S113014085B908956630710519F482E885B9089572
S11301506730710519F488EF85B908956830710521
S113016019F480E885B908956930710511F488E9B6
S113017085B908958F929F92AF92BF92CF92DF92EA
S1130180EF92FF920F931F93CF93DF93CDB7DEB718
S1130190D82EC92EEDB6FEB60E9448004C018DB78C
S11301A09EB7881999090FB6F8949EBF0FBE8DBFEC
S11301B02DB73EB72F5F3F4F89018114910409F495
S11301C0B4C0F901E80DF91D0F2EFAE0AF2EB12CE1
S11301D0F02D8D2D9C2DB5010E9450048293D62EB6
S11301E0C72EE217F307A9F79AC00F2EF8EECF2E09
S11301F0F3E0DF2EF02DF801608170E083E090E001
S11302000E946E0087EE93E00197F1F700C00000B2
S1130210F801618170E082E090E00E946E0087EE58
S113022093E00197F1F700C00000F801628170E0EB
S113023081E090E00E946E0087EE93E00197F1F771
S113024000C0000091E0C91AD108A9F66EC0E2E02E
S11302508E16910489F50F2EF8EECF2EF3E0DF2EE3
S1130260F02D60E070E083E090E00E946E0087EE85
S113027093E00197F1F700C00000F801608170E09D
S113028082E090E00E946E0087EE93E00197F1F720
S113029000C00000F801618170E081E090E00E94FC
S11302A06E0087EE93E00197F1F700C0000091E043
S11302B0C91AD108B1F639C08A948928B1F50F2E2C
S11302C0F8EECF2EF3E0DF2EF02D60E070E083E057
S11302D090E00E946E0087EE93E00197F1F700C072
S11302E0000060E070E082E090E00E946E00E7EEC3
S11302F0F3E03197F1F700C00000F801608170E08D
S113030081E090E00E946E0087EE93E00197F1F7A0
S113031000C0000091E0C91AD108B9F606C0E3E0B4
S11303208E16910409F093CF60CF15B81BB80FB6A1
S1130330F894FEBE0FBEEDBEDF91CF911F910F91D9
S1130340FF90EF90DF90CF90BF90AF909F908F90F1
S113035008950F931F93CF93DF93C0E0D1E004E19E
S113036011E00E948702899399932FEF82E597E029
S1130370215080409040E1F700C00000C017D10731
S113038081F780E091E0DF91CF911F910F91089563
S1130390AF92BF92CF92DF92EF92FF920F931F938F
S11303A0CF93DF93CDB7DEB760970FB6F894DEBF77
S11303B00FBECDBF9C018E010F5F1F4F5C0180E11A
S11303C0A80EB11C7801C12CD12CF901848195812E
S11303D02E5F3F4F40815181841B950BB6010E94D3
S11303E05004CB01992324F488279927861B970B63
S11303F0F701819391937F012A153B0531F7AE01F3
S11304004F5E5F4F80E090E0F801219131918F01C0
S1130410820F931FE417F507B9F7BC01992314F46D
S1130420695F7F4F75956795759567957595679520
S1130430072E000C880B990B0E9457032AE431E421
S113044047EB5CE30E94BB0320E030E04EEA52E459
S11304500E94BB030E941F03CB0160960FB6F89461
S1130460DEBF0FBECDBFDF91CF911F910F91FF90E3
S1130470EF90DF90CF90BF90AF9008958FE784B94D
S113048087E08AB90E94A9010E94C8018B309105B6
S1130490CCF30E94BA00F6CF539A549808955B980F
S11304A082E08A95F1F700C05B9A80E28A95F1F7C1
S11304B05B9882E08A95F1F700C008951F920F922D
S11304C00FB60F9211248F939F93AF93BF93809194
S11304D01C0190911D01A0911E01B0911F01019674
S11304E0A11DB11D80931C0190931D01A0931E01B9
S11304F0B0931F011092850010928400BF91AF91B8
S11305009F918F910F900FBE0F901F901895CF93CE
S1130510DF930E944C020E944F0221C08091180177
S113052090911901A0911A01B0911B010196A11D8E
S1130530B11D8093180190931901A0931A01B093EF
S11305401B018091180190911901A0911A01B09199
S11305501B0185319F48A340B10508F068C04C9B3E
S1130560DDCF1092850010928400E1E8F0E08081F4
S113057081608083EFE6F0E0808181608083109267
S11305801C0110921D0110921E0110921F017894FB
S1130590E4E8F0E019C020911C0130911D01409164
S11305A01E0150911F01C081D181AFEFBFEF0E94A6
S11305B09504DC01CB018C0F9D1FA11DB11D85315C
S11305C09F48A340B105B0F54C99E5CF1092810046
S11305D0F89420911C0130911D0140911E0150910D
S11305E01F01E0918400F0918500AFEFBFEF0E94FE
S11305F09504DC01CB018E0F9F1FA11DB11D8093BB
S1130600140190931501A0931601B0931701609102
S1130610140170911501809116019091170120ED3C
S113062031E040E050E00E946404C90105C08FEF4E
S11306309FEF02C08EEF9FEFDF91CF9108950E944C
S113064026036894B1110C94B50308950E949A038B
S113065088F09F5798F0B92F9927B751B0F0E1F07F
S1130660660F771F881F991F1AF0BA95C9F714C02F
S1130670B13091F00E94B403B1E008950C94B40336
S1130680672F782F8827B85F39F0B93FCCF3869568
S113069077956795B395D9F73EF4909580957095C5
S11306A061957F4F8F4F9F4F0895E89409C097FB42
S11306B03EF490958095709561957F4F8F4F9F4F35
S11306C09923A9F0F92F96E9BB279395F695879579
S11306D077956795B795F111F8CFFAF4BB0F11F43C
S11306E060FF1BC06F5F7F4F8F4F9F4F16C08823E3
S11306F011F096E911C0772321F09EE8872F762F19
S113070005C0662371F096E8862F70E060E02AF059
S11307109A95660F771F881FDAF7880F9695879545
S113072097F9089557FD9058440F551F59F05F3FAE
S113073071F04795880F97FB991F61F09F3F79F0FF
S113074087950895121613061406551FF2CF469581
S1130750F1DF08C0161617061806991FF1CF869503
S11307607105610508940895E894BB2766277727E7
S1130770CB0197F908950E94CE030C943F040E9484
S1130780310438F00E94380420F0952311F00C94C1
S113079028040C942E0411240C94B5030E94920393
S11307A070F3959FC1F3950F50E0551F629FF001C0
S11307B0729FBB27F00DB11D639FAA27F00DB11DD9
S11307C0AA1F649F6627B00DA11D661F829F222762
S11307D0B00DA11D621F739FB00DA11D621F839FE9
S11307E0A00D611D221F749F3327A00D611D231FBF
S11307F0849F600D211D822F762F6A2F11249F570D
S113080050409AF0F1F088234AF0EE0FFF1FBB1F0F
S1130810661F771F881F91505040A9F79E3F5105CE
S113082080F00C9428040C94B5035F3FE4F3983EE5
S1130830D4F3869577956795B795F795E7959F5F78
S1130840C1F7FE2B880F911D9695879597F908950A
S113085097F99F6780E870E060E008959FEF80EC6F
S1130860089500240A941616170618060906089512
S113087000240A9412161306140605060895092E78
S11308800394000C11F4882352F0BB0F40F4BF2BE7
S113089011F460FF04C06F5F7F4F8F4F9F4F089527
S11308A097FB072E16F4009407D077FD09D00E9419
S11308B0A00407FC05D03EF4909581959F4F0895C0
S11308C0709561957F4F0895A1E21A2EAA1BBB1B58
S11308D0FD010DC0AA1FBB1FEE1FFF1FA217B30708
S11308E0E407F50720F0A21BB30BE40BF50B661F1E
S11308F0771F881F991F1A9469F7609570958095E2
S113090090959B01AC01BD01CF010895A29FB00158
S1130910B39FC001A39F700D811D1124911DB29F2F
S1130920700D811D1124911D08950E948604A59FB8
S1130930900DB49F900DA49F800D911D11240895D6
S1130940AA1BBB1B51E107C0AA1FBB1FA617B707F1
S113095010F0A61BB70B881F991F5A95A9F780950D
S10F09609095BC01CD010895F894FFCFE0
S9030000FC
