:100000000C9434000C9446000C9446000C9446006A
:100010000C9446000C9446000C9446000C94460048
:100020000C9446000C9446000C9446000C94460038
:100030000C9446000C9449020C9446000C94460023
:100040000C9446000C9446000C9446000C94460018
:100050000C9446000C9446000C9446000C94460008
:100060000C9446000C94460011241FBECFEFD8E03C
:10007000DEBFCDBF21E0A0E0B1E001C01D92A03302
:10008000B207E1F70E9429020C949F040C9400002F
:100090009C01ADECBCEC0E9471049C013695279547
:1000A00036952795369527952115310599F041E02C
:1000B00050E04F5F5F4FADECBCEC0E9471049C01BF
:1000C000369527953695279536952795211531052F
:1000D00081F702C041E050E0CA01089581309105E6
:1000E00019F481E08BB90AC08230910519F482E0DD
:1000F0008BB904C0039711F484E08BB961157105C5
:1001000019F480EC85B908956130710519F489EF0F
:1001100085B908956230710519F484EA85B90895A6
:100120006330710519F480EB85B908956430710569
:1001300019F489E985B908956530710519F482E9E2
:1001400085B908956630710519F482E885B9089576
:100150006730710519F488EF85B908956830710525
:1001600019F480E885B908956930710511F488E9BA
:1001700085B908958F929F92AF92BF92CF92DF92EE
:10018000EF92FF920F931F93CF93DF93CDB7DEB71C
:10019000D82EC92EEDB6FEB60E9448004C018DB790
:1001A0009EB7881999090FB6F8949EBF0FBE8DBFF0
:1001B0002DB73EB72F5F3F4F89018114910409F499
:1001C000B4C0F901E80DF91D0F2EFAE0AF2EB12CE5
:1001D000F02D8D2D9C2DB5010E943B048293D62ECF
:1001E000C72EE217F307A9F79AC00F2EF8EECF2E0D
:1001F000F3E0DF2EF02DF801608170E083E090E005
:100200000E946E0087EE93E00197F1F700C00000B6
:10021000F801618170E082E090E00E946E0087EE5C
:1002200093E00197F1F700C00000F801628170E0EF
:1002300081E090E00E946E0087EE93E00197F1F775
:1002400000C0000091E0C91AD108A9F66EC0E2E032
:100250008E16910489F50F2EF8EECF2EF3E0DF2EE7
:10026000F02D60E070E083E090E00E946E0087EE89
:1002700093E00197F1F700C00000F801608170E0A1
:1002800082E090E00E946E0087EE93E00197F1F724
:1002900000C00000F801618170E081E090E00E9400
:1002A0006E0087EE93E00197F1F700C0000091E047
:1002B000C91AD108B1F639C08A948928B1F50F2E30
:1002C000F8EECF2EF3E0DF2EF02D60E070E083E05B
:1002D00090E00E946E0087EE93E00197F1F700C076
:1002E000000060E070E082E090E00E946E00E7EEC7
:1002F000F3E03197F1F700C00000F801608170E091
:1003000081E090E00E946E0087EE93E00197F1F7A4
:1003100000C0000091E0C91AD108B9F606C0E3E0B8
:100320008E16910409F093CF60CF15B81BB80FB6A5
:10033000F894FEBE0FBEEDBEDF91CF911F910F91DD
:10034000FF90EF90DF90CF90BF90AF909F908F90F5
:1003500008950F931F93CF93DF93CCE1D1E000E397
:1003600011E00E947202899399932FEF82E597E042
:10037000215080409040E1F700C00000C017D10735
:1003800081F7DF91CF911F910F910895CF92DF9266
:10039000EF92FF920F931F93CF93DF932CE131E005
:1003A000CCE0D1E00F2EFCE2CF2EF1E0DF2EF02DDD
:1003B0008E01E12CF12CF901848195812E5F3F4F54
:1003C00040815181841B950BB7010E943B04CB01F6
:1003D000992324F488279927861B970BF80181938A
:1003E00091938F012C153D0531F74CE151E080E0F0
:1003F00090E029913991820F931FC417D507C9F74F
:10040000BC01992314F4695F7F4F759567957595C5
:10041000679575956795072E000C880B990B0E94C0
:1004200042032AE431E447EB5CE30E94A60320E0A8
:1004300030E04EEA52E40E94A6030E940A03CB0178
:10044000DF91CF911F910F91FF90EF90DF90CF90B0
:1004500008958FE784B987E08AB90E94A9010E94B4
:10046000C6018B309105CCF30E94BA00F6CF539AA7
:10047000549808955B9882E08A95F1F700C05B9AE2
:1004800080E28A95F1F75B9882E08A95F1F700C0E7
:1004900008951F920F920FB60F9211248F939F937E
:1004A000AF93BF938091080190910901A0910A0137
:1004B000B0910B010196A11DB11D8093080190938D
:1004C0000901A0930A01B0930B01109285001092CC
:1004D0008400BF91AF919F918F910F900FBE0F90AD
:1004E0001F901895CF93DF930E9437020E943A0223
:1004F00021C08091040190910501A0910601B09165
:1005000007010196A11DB11D80930401909305017F
:10051000A0930601B0930701809104019091050119
:10052000A0910601B091070185319F48A340B10514
:1005300008F068C04C9BDDCF1092850010928400BB
:10054000E1E8F0E0808181608083EFE6F0E0808187
:1005500081608083109208011092090110920A01B3
:1005600010920B017894E4E8F0E019C020910801A2
:100570003091090140910A0150910B01C081D18154
:10058000AFEFBFEF0E948004DC01CB018C0F9D1FF9
:10059000A11DB11D85319F48A340B105B0F54C990F
:1005A000E5CF10928100F894209108013091090163
:1005B00040910A0150910B01E0918400F091850077
:1005C000AFEFBFEF0E948004DC01CB018E0F9F1FB5
:1005D000A11DB11D8093000190930101A093020120
:1005E000B0930301609100017091010180910201BB
:1005F0009091030120ED31E040E050E00E944F0473
:10060000C90105C08FEF9FEF02C08EEF9FEFDF9112
:10061000CF9108950E9411036894B1110C94A00326
:1006200008950E94850388F09F5798F0B92F992765
:10063000B751B0F0E1F0660F771F881F991F1AF0CD
:10064000BA95C9F714C0B13091F00E949F03B1E090
:1006500008950C949F03672F782F8827B85F39F08F
:10066000B93FCCF3869577956795B395D9F73EF466
:1006700090958095709561957F4F8F4F9F4F08950E
:10068000E89409C097FB3EF490958095709561952C
:100690007F4F8F4F9F4F9923A9F0F92F96E9BB27E2
:1006A0009395F695879577956795B795F111F8CF5E
:1006B000FAF4BB0F11F460FF1BC06F5F7F4F8F4FC9
:1006C0009F4F16C0882311F096E911C0772321F0BF
:1006D0009EE8872F762F05C0662371F096E8862F57
:1006E00070E060E02AF09A95660F771F881FDAF7AE
:1006F000880F9695879597F9089557FD9058440F60
:10070000551F59F05F3F71F04795880F97FB991F70
:1007100061F09F3F79F0879508951216130614062D
:10072000551FF2CF4695F1DF08C0161617061806BA
:10073000991FF1CF86957105610508940895E89495
:10074000BB2766277727CB0197F908950E94B90345
:100750000C942A040E941C0438F00E94230420F008
:10076000952311F00C9413040C94190411240C9487
:10077000A0030E947D0370F3959FC1F3950F50E095
:10078000551F629FF001729FBB27F00DB11D639F43
:10079000AA27F00DB11DAA1F649F6627B00DA11DE9
:1007A000661F829F2227B00DA11D621F739FB00D8F
:1007B000A11D621F839FA00D611D221F749F3327FF
:1007C000A00D611D231F849F600D211D822F762F98
:1007D0006A2F11249F5750409AF0F1F088234AF075
:1007E000EE0FFF1FBB1F661F771F881F91505040E1
:1007F000A9F79E3F510580F00C9413040C94A003BC
:100800005F3FE4F3983ED4F3869577956795B79567
:10081000F795E7959F5FC1F7FE2B880F911D969581
:10082000879597F9089597F99F6780E870E060E0F1
:1008300008959FEF80EC089500240A941616170679
:1008400018060906089500240A94121613061406C1
:1008500005060895092E0394000C11F4882352F024
:10086000BB0F40F4BF2B11F460FF04C06F5F7F4FDC
:100870008F4F9F4F089597FB072E16F4009407D0D3
:1008800077FD09D00E948B0407FC05D03EF49095BB
:1008900081959F4F0895709561957F4F0895A1E2CE
:1008A0001A2EAA1BBB1BFD010DC0AA1FBB1FEE1FEA
:1008B000FF1FA217B307E407F50720F0A21BB30B35
:1008C000E40BF50B661F771F881F991F1A9469F7B1
:1008D00060957095809590959B01AC01BD01CF010D
:1008E0000895A29FB001B39FC001A39F700D811D09
:1008F0001124911DB29F700D811D1124911D089529
:100900000E947104A59F900DB49F900DA49F800D2F
:10091000911D11240895AA1BBB1B51E107C0AA1FFA
:10092000BB1FA617B70710F0A61BB70B881F991F90
:100930005A95A9F780959095BC01CD010895F8943A
:02094000FFCFE7
:00000001FF
